:4000000000200020110000006D1200006D12000010B502F029F801F031F9000070B572B69022394B12031A60384A394B40241A60384A394B394D1A60EE22394B12021A6060
:40004000384A394B18201A600E22384B1C60384B1A60384A384B1A600222384B1A60384B4E321A60374A384B1A60D822374B12011A60374B813AFF3A1A6012232B6001F057
:4000800081FFB022334B12011A603349334B0B20196033490A60334A33491A60C022D2000A603249196032490A60CE21314AC9011A60314A1160314A31491A600422314B4A
:4000C0001A60314B3E321A604323304A1360304A136041222F4B1A602F4B03321C6000242E4B1A6001F096FE0B2001F0B5FE2C4B20001C6001F0C8FF03222A4B2C601A6088
:40010000294B1D321A6070BD0000024099EE00000001024000000808000202403000104000030240B6130000080004400C00044000010440310900000801044018010440A2
:4001400000020440066018000802044008030440080404400803014042FF0080000001400C03014043FF00800403014041FF00800003014040FF00801003014044FF00804C
:4001800015210000280003401801014014010140100101400801014004010140000101400C02074030003040000E3F4010B5064C2378002B07D1054B002B02D0044800E01A
:4001C00000BF0123237010BDF801002000000000EC230000084B10B5002B03D00749084800E000BF07480368002B00D110BD064B002BFBD09847F9E700000000FC01002099
:40020000EC230000900000200000000010B562B6FA20C00001F03EFE00F050FC01F02CFF01F022FF01F01AFF00F082FB00F0C8F900F0EAF900F008F800F07AFE00F064FC0E
:4002400000F080FBFCE700000023034A1370034A1370034A13707047BA020020AB020020B902002010B5094B1C78E4B2012C0BD1200001F02BFC200001F05CFB200001F065
:4002800025FC200001F056FB10BDC0469A02002070B5204B204C1A78012A06D100221A701E4B19781E4B218006C31E4B5A79002A15D0012000211C4A1568566840197141EA
:4002C0001500002904D13B2802D81060516006E00020002122882860696001322280DA7E002A0ED11A7F002A0BD10D4B20881968814202D15968002903D005C3C0B200F098
:40030000EFFB0A4B22889A4202D90122084B1A7070BDC046940000209C020020BC020020A0020020BE020020B002002057020000BA02002000230121124A9370D370137186
:400340005371D371537093755375D375137653769376D376137753779377D377137253729372D3721373084A1170084A9370D370137153719371D371137253729372D372A5
:4003800013747047BE020020AB020020F902002010B5104B104C1A78104B5978914208D05A7000230A210E4A217013700D4A13700FE02378002B01D0013B09E00122084BD3
:4003C0001A7001F02FF800F0FBF8FFF7B3FF0A23237010BDBE02002095000020140200209A020020AB020020022370B5494C227825001A4022D001F05BFB01F0D9FBC82011
:4004000001F0AAFBC82001F027FB642001F0AAFB642001F027FBA079012800D078E03E4B1A881C00322A00D9002001F09BFA2388632B6DD90022384B1A8069E0374B3849E4
:400440005879384B9C78844201D10A8000E0D8700A88042A01D9DA789A709B78324C142B0BD1012001F072FA00202B4B20801A881C00322AD9D80130D7E71E2B10D101206F
:4004800001F064FA0020244B20801A881C00212A00D8013001F066FA2388412BCAD837E0282B10D1012001F051FA00201A4B20801A881C00192A00D8013001F053FA2388E2
:4004C000312BB7D824E03C2B10D1012001F03EFA0020114B20801A881C00112A00D8013001F040FA2388212BA4D811E0002001F039FA23880D4A01339BB22380934207D9AF
:4005000002232D781D4003D1280001F01FFA258070BDC046E003002026020020BE0200202202002014020020240200201027000010B50A4B1B78012B04D101F0B9FA01F051
:40054000FDFA0AE0022B02D101F078FA03E0032B03D101F0ADFA01F02BFB10BD9802002010B5154B1C7A04231C4020D1134BDA7E002A0AD0012001F0EFFA012001F06CFAC0
:40058000200001F0EFFA20000CE01B7F002B0ED0C82001F0E1FAC82001F05EFA642001F0E1FA642001F05EFAFFF7C2FF03E001F045FA01F0C3FA10BD40030020BE02002008
:4005C00010B5044A11211B2000F0AAFF00F01CFF10BDC046F9020020002370B51D001E00084C23706370B14206D9855D01366B40D35CF6B20125F6E7002D01D066702370D5
:40060000207870BD18020020BB220A4B5A740A4A12789A74094A1278DA74094A12781A7503225A75023A9A750022DA751A765A767047C046F902002016030020BA0200203B
:40064000A8020020114A124B117819705178597091789970D178D970117919715179597191799971D179D971117A1972517A5972917A9972D17AD972117B1973517B597358
:40068000917B9973D27BDA737047C046F9020020DE02002010B5FFF7D5FF074A10210748FFF79AFF064B1A7C064B824201D1012000E00020187010BDF0230000DE0200206A
:4006C000F9020020140300200A4A0B4B517C5974917C9974D17CD974117D1975517D5975917D9975D17DD975117E1976527E5A767047C046F9020020DE020020BB2310B507
:400700000D4C63740D4B1B78A3740D4B1B78E3740C4B1B78237503236375023BA3750023E37523766376FFF7CFFF074A09210748FFF752FFA07610BDF90200201603002077
:40074000BA020020B8020020F0230000EF02002010B5FFF7D3FF10BDF0B585B0FFF79AFF012868D1354A364B517804271970917808265970D1781025997011790C0004409C
:400780009C7502240C405C750C003C40DC750C0034401C760C002C405C7620240C409C76547925000540DD76022525401D776D46274000972D7826405D776D4601962D79E4
:4007C0009D771025254002956D462D7ADD7795795D71D5792E000640DE71022635401D72157A5D72577AAC469F72967ADE72D57A360203956D462D7B1D7365462D02AC4685
:40080000039D67447619DF811E82127BD9749A741C75009B002B02D00A4B18700BE0019B002B02D0074B022204E0029B002B02D00322044B1A7005B0F0BDC046F9020020F7
:40084000BE0200209802002070B5364B1B7A5B0701D5FFF785FE344C23780133DBB2012B01D8237059E00026022163782F4D0133DBB2267063702A880A432A80012B4CD981
:40088000667000F049F9A3780133DBB2092B01D8A37042E00822A6702B8813432B80E3780133DBB2042B01D8E37036E01022E6702B8813432B8023790133DBB2042B01D8F0
:4008C00023712AE0402226712B8813432B8063790133DBB2012B01D863711EE0802266712B8813432B80A3790133DBB2012B01D8A37112E08022A6712B88520013432B8065
:40090000E3790133DBB2092B01D8E37105E08022E6712B88920013432B80012000F03CFD70BDC046400300201A0200202003002010B500F023FD024800F044FD10BDC04693
:400940004908000070B54E4B07211878421C1A7001F010FD4B4BC8B201381A68052804D801F078FC0D192C507780120700D485E008211A888A431A8000F0FEFA7EE0D20656
:4009800000D47BE010211A888A431A8000F008FB00F086FA72E0520670D540211A888A431A80394A138801331380FFF75BFCFFF7CFFEFFF7D1FEFFF7D3FD5FE012065DD509
:4009C00080211A888A431A8001F056FB2F4A13780133DBB2092B01D813704FE0002313702B4BDA7E002A49D11B7F002B46D1294D294C28782378834240D000F07BF82B78F2
:400A000023703BE0D20539D51988244A0A401A80234A13780133DBB2FA2B00D900231370FFF7B6FC1A4BDB79012B27D10021002400251C4A1C48137801701C480133046022
:400A400045601B48DBB213700180F92B16D9117014E0920512D51988164A0A401A80FFF717FC0BE0920709D513490A8801320A8002211A888A431A80FFF7B6FC70BDC046D5
:400A800028020020200300202202002018030020BE02002098020020A8020020FFFEFFFF16030020B9020020BA020020B00200209C020020FFFDFFFF26020020044B1A7828
:400AC000044B1A70044B1A78044B1A707047C04601FD0000BC02002002FD0000B8020020034910B54870FD20400001F0D3F810BD96000020034910B58870FD20400001F035
:400B0000C9F810BD9600002010B5024800F058FF10BDC0461D0C000070B5284C23780133237000F02BFF264D287000F027FF2B78C018287000F022FF2B78C018C0B2287040
:400B40002300012802D96278013262709A78002A02D0013A9A7005E004211A7A0A4303398A431A72174918480B685A1C0B00824201D80A6020E000211A791960372A0AD970
:400B80009A7959710132D2B2092A01D89A7111E099713C2209E05A7999710132D2B2092A01D85A7106E0322259710121DA711A7A0A431A7200221A7170BDC04640030020BC
:400BC0002902002024030020E7030000002201210F4B1A705A7064329A701A7A0A4303318A430C491A720B790B4A01330B7153780133DBB25370312B08D9C979322903D09F
:400C00003B2B03D93C2901D1002353707047C046400300202403002029020020022010B50A4B197A1A78814319720E2A05D95A78052A02D9CAB202431A721B7A9B0701D5A7
:400C4000FFF7C4FF00F0A2FE10BDC0464003002070B50324104D2E783440012C1BD103000B4309D1012A16D10C4B1978002912D10B491A700A700EE000280CD101290AD198
:400C8000FE2A08D1054B1B78012B04D1044B5A70022333432B7070BDE00300202C020020CC030020F8B507000D0016001F4C00281FD1082905D1AA2A1BD1012000F046FE1D
:400CC00017E0092905D1AA2E13D140222378134306E00A2D06D1BB2E0BD1402223789343237006E00B2D04D1AA2E02D10123A3711AE0002000F0EAFE002000F01BFE0023B3
:400D0000A3719F4210D10C2D06D1AA2E0CD1802223785242134306E00D2D05D1BB2E03D17F23227813402370F8BDC046E003002070B50E4C0E4D6378002B07D101262B78DC
:400D400033432B7000F086FA6670608003232E781E40012E09D100F07DFA6388C01A80B20A2802D92B78B3432B7070BD2C020020E003002030B5114A114B127801219A709A
:400D8000002204251A715A7103329A710D4AD970D97113780C480B409C0003785278AB431D0013000B401A012B0023431024A3431343082213430370818030BD16030020BE
:400DC000CC03002014030020E003002010B5164B1A781900154B500701D5AA2000E0BB205873D00601D5AA2000E0BB201873500601D5AA2000E0BB209873D20901D0AA222C
:400E000000E0BB22DA73887901280BD1084C2388322B00D9002000F0A5FD2388632B01D90023238010BDC046E0030020CC0300202602002070B5144C23789A0722D52026D7
:400E4000124A1588334206D000F0F8F9104B18802378B34323700F4C637822781B0213439D420FD000F0EAF9094B1B88C01A80B2642807D90849237808480B7063784B70A6
:400E800000F008FF70BDC046E003002080FF0000E8030020CC0300204C030020FF01000010B5FFF745FF054B1B789B0705D5FFF761FFFFF78BFFFFF7BDFF10BDE003002067
:400EC000F7B5174B1A680193530725D5154C2368022B03D92300002273331A70124B1E78002E16D1250073352F7800F00FFDE71938712B7826600133DBB22B70042B08D95A
:400F000020210A4A2E7013780B4313700123064A13700423019A1360072000F0B1FFF7BDC00F0840EC03002064040020E003002010B500F00BFC072000F08EFF014800F031
:400F400013FC10BDC10E000070B5094C250079352B78002B0AD02300743319780548013100F04CFC002372342B70237070BDC046EC030020FA030020074A13680133042B3A
:400F800000D90A231360054A1378012B01D9013B00E07F2313707047EC03002018010020F7B56B46DA1D00239D4C1370230078331978002937D0210079310978002932D1AE
:400FC000197023791B071AD400231370E179A079CB43657926791B1A5B1B9B1BDBB21370277A13789F421ED18E4B01221E705D709870D9701F71230077331A7013E0230006
:401000007A331B78002BDFD0230076331D78864986480B781E091B0133436B400B7001318842F6D1D0E7230077331B78002B00D1F5E0FF237E4E7B4D73702B782F003200EE
:40104000072B7AD01CD8032B3DD004D8012B30D0022B66D0DAE0042B7AD0052B00D0D5E02300012274331A707F2331780B40210076310B70A373DB43E37323007A33C4E024
:40108000862B00D193E00021862B09D8082B2FD0092B00D0BAE0230072331970654E70E0872B00D18EE0882B00D0AFE02300723395E0AA78052A00D9A8E0210074310B7031
:4010C0005D4B9B5C26E02700A978743713290CD8EA786878FFF7BCFDA978EA788900761873681A7001233B7013E001233B701FE0EA78A9786878FFF7D5FD2100A8787431A7
:401100004C4A83003D2809D8E878D358187001230B70EB78A373DB43E37377E00120087014E0A978132971D82300012274331A708900761873681B78ECE7AB783D2B65D890
:4011400022000121743211703A4A9B009B58F2E72300002172331970197812290AD888001018406805786018857350780131401B5070F0E75278A11CCA7722001321743204
:4011800041E019783C290AD88800805905786018857350780131401B50701970F1E7210052784B310A7022003D2174322BE0AB78022B2BD8220001219B007432ED18117002
:4011C000AB68B8E7AB78022B20D89B00EB18EA789B681A702300012274331A7099E71970197801290AD888003818806805786018857350780131401B5070F0E752780221C5
:40120000227422007432117000221A702300012279331A70002377342370FFF795FEF7BDEC03002030020020F0030020F503002018010020F0240000E425000082B06A4645
:40124000034B1B889BB2D380D08880B202B070474402002082B06A46034B1B899BB2D380D08880B202B070474402002010B501F087F803680C2B00D1FEE7FEE7F8B5002573
:401280000F49104B01394A1C14D000221F685C689E68A018B24203D0B858A0500432F8E70200DE68141AA64201D020C2FAE710330139E8E701F06AF8FEF7A8FFFEE7C046D8
:4012C0000100000010260000002370B509480A4C0A4D9A002100032B00D8A95801338150242BF6D1FEF79AFE8022054B92051A6070BDC046000000206D1200000000000032
:4013000008ED00E08022084B92041A600C22074B1A60074B0B3A1A60064BF9321A600022054B1A607047C04680010640A4010640B8010640940106408801064070B50D009C
:401340000400AC4000F041FF024B1C6000F041FF70BDC0460800064010B5042400F035FF054A13682343136000F033FF18212000FFF7E4FF10BDC0460000064010B5054C9C
:401380002378002B03D1FFF7BDFF01232370FFF7E3FF10BD4E020020014B18607047C046B001064010B5040000F00FFFC021044AA40113688B431C43146000F00AFF10BD20
:4013C00010E400E010B58024054B64021C60054B0433D8670320FFF7E5FF034B1C6010BD80E100E00000002000E100E08021054A10B5136809060B431360092000F02CFDC0
:4014000010BDC04600000A4010B5054C2378002B03D100F01DF801232370FFF7E7FF10BD5002002010B5092000F020FD00F072F8054A092013685B005B0813600022034B1F
:401440001A6000F01DFD10BD00000A40880F0A4010B500241A4B1B4A1C601B4B1B491A601B4B1C4A092013601B4A14601B4A11601B4A136002221B4B1A6000F0F7FC032183
:40148000092000F0CFFC1849092000F0C3FC3222164BFF321C60164B1C60164B1A60164B2E3A1C60154BFF3A1A60154B1C60154B1C70154B1C70154B1C80154B1C7010BD34
:4014C00000000A4000F8004060000A401200FE000701008000030A4004030A4010030A4000020A4004020A4051150000C80E0A40880E0A40480F0A40080F0A40C80F0A4008
:40150000880F0A407C0400206E04002070040020780400200022014B1A7070477C04002070B506000D00141E0BD0092000F09EFC044B09201C60044B1E80044B1D8000F064
:401540008BFC70BD740400207A0400206C040020614BF7B51B68002B00D098475F4B60490A6818680223FF33134025D010205D4A5D4913685B005B0813600B7803430B70EB
:401580005A4B1C781800E30708D5594B1C78594B1B889C4206D00B78082401E002240B7823430B70002354490B6080210370136809060B4313608EE0040734D54B4E4F4B87
:4015C00034781B68012C0ED0002C1BD0032C27D180264B4C76022568354325602668494D354025601CE0434D474F2C883F88A74214D9464E36683419DEB226702C88013415
:401600002C800DE0424C3A4D27883A4CBB4203D223802B70012402E02D7825800324347004253C4C25602024144019D040233A4D0B603A4B3A4E1D6002251D602C4B1D7855
:40164000324B1B685B191B780135DBB23360294E338835800126284D2E6004250A602843400720D52A48234E00882D4F0090274800680190FF2084463088009DA84207D2E2
:40168000019D2D182D780130EDB23D60308001E0604638601F252348006828400228EBD121481E3D0560D00615D5002C02D1114B0A601B880E490D480C780221A34203D0A5
:4016C0000378DB0700D50831074B0A401C7822431A7000230370F7BD54020020000E0A40400F0A4000000A406E0400207C0400207804002070040020880F0A4040030A4095
:4017000004030A40FFFFFEFF6C040020740400207A040020C00F0A400200010004020A4040020A4008020A40800F0A408021064A10B5136809060B431360072000F08CFBD3
:4017400000F0D2F810BDC0460000084010B5054C2378002B03D100F05DF801232370FFF7E5FF10BD58020020014B58607047C04658020020014B18687047C0464003084078
:40178000024B18681F2318407047C04608030840134B144A30B515681C681900A54208D1114B1C681F232340082B02D00F4B186015E013680133642B00D100230C68A3425B
:4017C000FCD002210A4CC0B221600A4CE0541360094B1A680A4202D11A680A431A6030BD80040020E80400200802084040020840800F084084040020880F084070B5040076
:401800004518AC4204D02078FFF7C2FF0134F8E770BD000070B500240725012104261B4A1B4B28001A601B4B1B4A1C601B4B1A601B4B1C4A13601C4A15601C4A14601C4A4A
:4018400011601C4A13601C4B1C601C4B1E6000F00DFB2800032100F0E5FA2800184900F0D9FA184B1C60184B1C60184B1C60184B1C60184B1E60184B1C601A68174B1A803D
:40188000174B1C60174B1C6070BDC0460B000002000008404000084001000A0048000840070000800003084004030840100308404400084000020840040208405000084089
:4018C000D9210000880E0840C80E0840480F0840080F0840C80F0840880F084060020020E804002080040020F021054A13688B4360390B431360034B1A88034B1A60704752
:401900000001024060020020880F084010B5FFF737FF03000020834201D0FFF72BFFD822034B92001968114201D000201A6010BDC00F08401023044900010A689A43D2B2E8
:40194000034013430B607047000204400423044980000A689A43D2B2034013430B60704700000440012304490A689A43D2B2034013430B607047C04600020440024B186888
:401980000007C00F7047C046040004400823034A106818401060C008C0B270471000044010B5040000F011FCC021044AA40113688B431C43146000F00CFC10BD00E400E010
:4019C00010B50124044B1C60044B18640320FFF7E7FF034B1C6010BD80E100E00000002000E100E0802280210D4BD2041A601A6849020A431A60C7220A490A601968196090
:401A00000C21094B1960094B0B391960084B1B311960084B1A60084B633A1A607047C0460001064008010640240106403801064028010640140106400C01064010B500F03D
:401A4000C4FB0121034A13688B43136000F0C1FB10BDC04600000640014B80B21860704714010640014B80B2186070470C01064070B50D000400AC4000F0A7FB024B1C6032
:401A800000F0A7FB70BDC0460800064010B5012400F09BFB054A13682343136000F099FB18212000FFF7E4FF10BDC0460000064010B5054C2378002B03D1FFF793FF0123D5
:401AC0002370FFF7E3FF10BD620200204023044980010A689A43D2B2034013430B60704700020440802280210D4BD2041A601A6849020A431A60C7220A490A601968196006
:401B00000C21094B1960094B0B391960084B1B311960084B1A60084B633A1A607047C0464001064048010640640106407801064068010640540106404C01064010B500F07C
:401B400044FB0221034A13688B43136000F041FB10BDC04600000640014B80B21860704754010640014B80B2186070474C01064070B50D000400AC4000F027FB024B1C6030
:401B800000F027FB70BDC0460800064010B5022400F01BFB054A13682343136000F019FB18212000FFF7E4FF10BDC0460000064010B5054C2378002B03D1FFF793FF012353
:401BC0002370FFF7E3FF10BD6302002082B06A460B4B0C4900930C4B01930C4B1A600C4A1160C0461A68120F0F2A04D01A680020120F0A2A01D01868C0B202B07047C046A6
:401C0000B6E9000016000080640200200800104004001040094B0A4A0A491A600A4A1160C0461A68120F0F2A04D01A680020120F0A2A01D01868C0B27047C046080010407E
:401C4000B6E80000150000800400104082B06A460B4B0C4900930C4B01930C4B1A600C4A1160C0461A68120F0F2A04D01A680020120F0A2A01D01868C0B202B07047C0465B
:401C8000B6EA000017000080640200200800104004001040F0B50024304BA7B0029406000394984254D8A14252D0802206A800F093FB2B4B04AF04937F232A4D7B602A4AEC
:401CC0002A4B2F601360C0462B6801921B0F0F2B03D02B681B0F0A2B01D02C68E4B20294029B002B36D100F070FA0400FFF76EFF0390039B002B02D1FFF78CFF0290029B18
:401D0000002B16D11A4A1B490492049A0198360416430496134A2F600160C0462968090F0F2903D01168090F0A2901D01368DBB20293039B002B07D1FFF788FF0390039B47
:401D4000002B01D0039B0293200000F042FA01E004230293029827B0F0BDC046FF010000B6D70000080010400400104004000080B6D800000500008010B5040000F025FA7F
:401D8000102C04D803210C4A13688B430FE0202C05D80321084A13688B43023906E0302C06D80321044A13688B4301390B43136000F00FFA10BDC046300010400B480C4A6B
:401DC0000C4B10B51B68116804680B4A9B00224002601C2213400A07920F1833D340074A9B181B78064ADBB2136010BD0000074028000340080F0340FFFFFFBFCDF1FF0FC2
:401E00000C0F0340024B18684000C00F7047C04600000740024B8000C31818681960704740000020F8B5032605003540B5400F0004000635AE40AF4000F0C7F9A408054B90
:401E4000A400E4182368B3431F43276000F0C1F9F8BDC04600E400E01F2318401E3B8340014A13607047C04600E100E01F2318401E3B8340014A13607047C04680E100E0CB
:401E80001F2318401E3B8340014A13607047C04680E200E070B5802504002D02064BAC4205D9586800F088F9044BE418F6E79868604300F081F970BD7C0100200080FFFFE7
:401EC000F0B585B000F0C4F8002846D000F07DF90024234A234B01901B681068224A234D14602968224A9B001140A022520311431C2213400207920F1833D3401D4A1E4E1D
:401F000053438022D2019B18DB0B013B0B432B60336830200393FFF72FFF8021174AC90513680B4313602A68154B1A40170001201034FFF7AFFFA3053B432B60F02CF6D137
:401F40000120FFF7A7FFFF23084A9B053B431360039B0198336000F03CF905B0F0BDC04628000340080F03400C0F03400800074000F800C040420F003000104000000740C6
:401F8000FFFF3FC0F7B50500183D0400182D45D80126234B3700EB409F433FD100F015F90190FFF72FFF0097002802D0FFF706FF009607271B4E1C4A33681C49BB4333606C
:401FC0001B4BE3181B78DBB213601A4A1368BB431360194B0A68E31818787F239A43034013430B60322000F0E7F8182C0ED033681C3CA408BB433C401C433460322000F028
:40200000DBF83368AD08BB431D433560009B012B01D1FFF755FF019800F0DBF8F7BDC04611111101080F03400C0F0340180F0340CDF1FF0F100F0340B4F1FF0F10B5034B47
:402040001B7B584300F0B8F810BDC0467C010020014B1868C00F7047000007400022014B1A60704738000340014A024B1A6070476588EDAC380003400121024A13680B436B
:40208000136070474400034070B5154D04002B68144E9B0F9B07984215D0032233687C20934333602B689B0F00D09030FFF7C6FF00F08BF82B68A40F9B009B08A4071C4396
:4020C0002C6000F086F803223368934319002B689A0F5342534101330B43336070BDC0460C0207401402074010B5040000F06DF80549064A0B681440054A134023430B60E2
:402100000B6800F066F810BD1002074004040400FBFBFBFF042270B5224C2368134213D021490B6813420CD0204B5D6908681540A84308605969914359619B68002B00D09B
:4021400098470420FFF7D0FF80232268DB001A4215D015490A681A420DD0144A556908682B40984308605169114B0B405361D368002B00D098478020C000FFF7B5FF802334
:402180002268DB021A420CD0074A12681A4204D0064B1B69002B00D098478020C002FFF7A3FF70BD10020740900100207C020020FFFBFFFF000000000230800803D0013051
:4021C0000238FCD1C046C0467047EFF3108072B6704780F310887047154B70B51B68002B00D09847134B1B689B071FD51F20124C124A21681368994210D013680133642BB3
:4022000000D100230E490F4DC95CC9B2296013600D4B1B680340082BEBD104E002210B4A13688B4313600222094B1A6070BDC0465C0200208C0F0840E80400208004002000
:40224000840400204002084008020840880F0840800F084002B4714649084900095C49008E4402BC7047C046002243088B4274D303098B425FD3030A8B4244D3030B8B42CA
:4022800028D3030C8B420DD3FF22090212BA030C8B4202D31212090265D0030B8B4219D300E0090AC30B8B4201D3CB03C01A5241830B8B4201D38B03C01A5241430B8B42B1
:4022C00001D34B03C01A5241030B8B4201D30B03C01A5241C30A8B4201D3CB02C01A5241830A8B4201D38B02C01A5241430A8B4201D34B02C01A5241030A8B4201D30B02F2
:40230000C01A5241CDD2C3098B4201D3CB01C01A524183098B4201D38B01C01A524143098B4201D34B01C01A524103098B4201D30B01C01A5241C3088B4201D3CB00C01AE8
:40234000524183088B4201D38B00C01A524143088B4201D34B00C01A5241411A00D20146524110467047FFE701B5002000F006F802BDC0460029F7D076E770477047C046BE
:40238000014B18687047C046F40100200E4B70B500251E000D4CE41AA410A54204D0AB00F35898470135F8E700F020F9084B00251E00084CE41AA410A54204D0AB00F358B8
:4023C00098470135F8E770BDF8250000F8250000F825000000260000002310B59A4203D0CC5CC4540133F9E710BD000000000000005EBCE2613FDD83C29C7E20A3FD1F418F
:402400009DC3217FFCA2401E5F01E3BD3E6082DC237D9FC1421CFEA0E1BF5D0380DE3C62BEE0025CDF81633D7C22C09E1D43A1FF4618FAA427799BC584DA3866E5BB5907BC
:40244000DB856739BAE406581947A5FB7826C49A653BD987045AB8E6A7F91B45C6987A24F8A6441A99C7257B3A6486D85B05E7B98CD2306EEDB3510F4E10F2AC2F7193CD7C
:40248000114FADF3702ECC92D38D6F31B2EC0E50AFF1134DCE90722C6D33D18F0C52B0EE326C8ED0530DEFB1F0AE4C1291CF2D73CA947628ABF517490856B4EA6937D58B3C
:4024C0005709EBB536688AD495CB2977F4AA4816E9B7550B88D6346A2B7597C94A14F6A8742AC896154BA9F7B6E80A54D7896B35CC030020CD030020CE030020CF03002032
:40250000D0030020D1030020D2030020D3030020DC030020DC030020DC030020DC030020DC030020DC030020DC030020DC030020DC030020DC030020DC030020DC030020D5
:40254000DC030020DC030020DC030020DC030020DC030020DC030020DC030020DC030020DC030020DC030020D9030020D8030020DA030020DB030020DD030020DD03002073
:40258000DD030020DD030020DD030020DD030020DD030020DD030020DD030020DD030020DD030020DD030020DD030020DD030020DD030020DD030020DD030020DD0300201B
:4025C000DD030020DD030020DD030020DD030020DD030020DD030020DD030020DD030020190100201404650201034300F8B5C046F8BC08BC9E467047D5010000C912000064
:40260000F8B5C046F8BC08BC9E467047AD010000202600009000002068010000F802000000000000010AFF00000000000000000000000000000000000000000000000000C3
:40264000000000000000000000000000000000000000000000000000000000000000000000000000000000000000000000000000000000000000000000000000000000005A
:40268000000000000000000000000000000000000000000000000000000000000000000000000000000000007FFF0000BE0200200B0300206D0100206C010020BF02002092
:4026C000C0020020D1020020D2020020C30200209C0200209E020020CC020020CD020020CE020020CF020020D0020020A8020020B9020020AB020020190100200103170334
:402700000101010108070605040300000100000000007017E02E00000C000000001BB7000404040000000000000000000000000000000000000000000000000000000000F4
:4027400000000000EA25000000000000000000000000000000000000000000000000000000000000000000000000000000000000000000000000000000000000000000004A
:402780000000000094010020000000000000000000000000000000000000000000000000000000000000000000000000000000000000000000000000000000000000000064
:4027C00000000000000000000000000000000000000000000000000000000000000000000000000000000000000000000000000000000000000000000000000000000000D9
:402800000000000000000000000000000000000000000000000000000000000000000000000000000000000000000000000000000000000000000000000000000000000098
:402840000000000000000000000000000000000000000000000000000000000000000000000000000000000000000000000000000000000000000000000000000000000058
:402880000000000000000000000000000000000000000000000000000000000000000000000000000000000000000000000000000000000000000000000000000000000018
:0200000490303A
:0200000043BCFF
:0200000490402A
:4000000000000000000000000000000000000000000000000000000000000000000000000000000000000000000000000000000000000000000000000000000000000000C0
:0200000490501A
:0C00000000021B0111AB00011B0D556735
:0200000490600A
:0100000001FE
:00000001FF